:020000040800F2
:100000000028002035180008A9150008AF150008C1
:10001000B5150008BB150008C11500080000000058
:10002000000000000000000000000000C7150008EC
:10003000D315000800000000DF150008EB150008CC
:100040007D1800087D1800087D1800087D1800083C
:100050007D1800087D1800087D1800087D1800082C
:100060007D1800087D1800087D1800087D1800081C
:100070007D1800087D1800087D1800087D1800080C
:100080007D1800087D1800087D1800087D180008FC
:100090007D1800087D1800087D1800087D180008EC
:1000A0007D1800087D1800087D1800087D180008DC
:1000B000F91500087D180008000000007D180008F0
:1000C0007D18000800000000000000007D180008F6
:1000D000000000007D1800087D18000800000000E6
:1000E0007D1800087D1800087D1800080000000039
:1000F0000000000000000000000000000000000000
:0C01000000000000000000005FF808F1A3
:10010C0010B5054C237833B9044B13B10448AFF345
:10011C0000800123237010BD40000020000000006F
:10012C00AC2E000808B5034B1BB103490348AFF3D1
:10013C00008008BD0000000044000020AC2E000828
:10014C0080B582B000AF78607B68002B29D100228B
:10015C004FF40071D34801F08EFE00224FF4806101
:10016C00D04801F088FE00224FF40061CD4801F028
:10017C0082FE00224FF48051CA4801F07CFE00221E
:10018C004FF40051C74801F076FE00224FF4804135
:10019C00C44801F070FE01224FF40041C14801F047
:1001AC006AFE7B68012B29D101224FF40071BD48F6
:1001BC0001F061FE00224FF48061BA4801F05BFE51
:1001CC0000224FF40061B74801F055FE01224FF4B4
:1001DC008051B44801F04FFE01224FF40051B14858
:1001EC0001F049FE01224FF48041AE4801F043FE7C
:1001FC0001224FF40041AB4801F03DFE7B68022B1D
:10020C0029D100224FF40071A64801F034FE0022DF
:10021C004FF48061A34801F02EFE01224FF40061DF
:10022C00A04801F028FE00224FF480519D4801F0B7
:10023C0022FE00224FF400519A4801F01CFE0122CC
:10024C004FF48041974801F016FE00224FF4004114
:10025C00944801F010FE7B68032B29D100224FF447
:10026C000071904801F007FE00224FF480618D4828
:10027C0001F001FE00224FF400618A4801F0FBFD01
:10028C0000224FF48051874801F0F5FD01224FF414
:10029C000051844801F0EFFD01224FF48041814868
:1002AC0001F0E9FD00224FF400417E4801F0E3FD2E
:1002BC007B68042B29D101224FF40071794801F09D
:1002CC00DAFD00224FF48061764801F0D4FD002263
:1002DC004FF40061734801F0CEFD01224FF48051C0
:1002EC00704801F0C8FD01224FF400516D4801F037
:1002FC00C2FD00224FF480416A4801F0BCFD00228F
:10030C004FF40041674801F0B6FD7B68052B29D1FD
:10031C0000224FF40071634801F0ADFD01224FF44F
:10032C008061604801F0A7FD00224FF400615D4838
:10033C0001F0A1FD00224FF480515A4801F09BFDC1
:10034C0001224FF40051574801F095FD00224FF463
:10035C008041544801F08FFD00224FF40041514878
:10036C0001F089FD7B68062B29D100224FF4007126
:10037C004C4801F080FD01224FF48061494801F0A6
:10038C007AFD00224FF40061464801F074FD002212
:10039C004FF48051434801F06EFD00224FF40051A0
:1003AC00404801F068FD00224FF480413D4801F0C7
:1003BC0062FD00224FF400413A4801F05CFD7B687D
:1003CC00072B29D100224FF40071364801F053FD60
:1003DC0000224FF48061334801F04DFD00224FF4B0
:1003EC000061304801F047FD01224FF480512D4847
:1003FC0001F041FD01224FF400512A4801F03BFD70
:10040C0001224FF48041274801F035FD01224FF4C1
:10041C000041244801F02FFD7B68082B29D10022D4
:10042C004FF400711F4801F026FD00224FF480614B
:10043C001C4801F020FD00224FF40061194801F026
:10044C001AFD00224FF48051164801F014FD0022D1
:10045C004FF40051134801F00EFD00224FF480417F
:10046C00104801F008FD00224FF400410D4801F046
:10047C0002FD7B68092B2CD100224FF40071094836
:10048C0001F0F9FC00224FF48061064801F0F3FC06
:10049C0000224FF40061034801F0EDFC00224FF400
:1004AC00805101E0000801400C4801F0E4FC0122FD
:1004BC004FF40051094801F0DEFC00224FF480415A
:1004CC00064801F0D8FC00224FF40041034801F02B
:1004DC00D2FC00BF0837BD4680BD00BF00080140FC
:1004EC0080B582B000AF78607B68002B24D10022ED
:1004FC000821C74801F0BFFC00221021C44801F0BC
:10050C00BAFC00222021C24801F0B5FC0022402197
:10051C00BF4801F0B0FC00228021BD4801F0ABFCCB
:10052C0000224FF48071BA4801F0A5FC01224FF46F
:10053C000071B74801F09FFC7B68012B24D101228C
:10054C000821B34801F097FC00221021B04801F0BB
:10055C0092FC00222021AE4801F08DFC01224021AA
:10056C00AB4801F088FC01228021A94801F083FCF2
:10057C0001224FF48071A64801F07DFC01224FF45A
:10058C000071A34801F077FC7B68022B24D1002278
:10059C0008219F4801F06FFC002210219C4801F0BB
:1005AC006AFC012220219A4801F065FC00224021BE
:1005BC00974801F060FC00228021954801F05BFC1B
:1005CC0001224FF48071924801F055FC00224FF447
:1005DC0000718F4801F04FFC7B68032B24D1002263
:1005EC0008218B4801F047FC00221021884801F0BB
:1005FC0042FC00222021864801F03DFC00224021D3
:10060C00834801F038FC01228021814801F033FC41
:10061C0001224FF480717E4801F02DFC00224FF432
:10062C0000717B4801F027FC7B68042B24D101224C
:10063C000821774801F01FFC00221021744801F0BA
:10064C001AFC00222021724801F015FC01224021E5
:10065C006F4801F010FC012280216D4801F00BFC69
:10066C0000224FF480716A4801F005FC00224FF41F
:10067C000071674801F0FFFB7B68052B24D1002239
:10068C000821634801F0F7FB01221021604801F0BA
:10069C00F2FB002220215E4801F0EDFB00224021FC
:1006AC005B4801F0E8FB01228021594801F0E3FB93
:1006BC0000224FF48071564801F0DDFB00224FF40C
:1006CC000071534801F0D7FB7B68062B24D1002224
:1006DC0008214F4801F0CFFB012210214C4801F0BA
:1006EC00CAFB002220214A4801F0C5FB0022402110
:1006FC00474801F0C0FB00228021454801F0BBFBBC
:10070C0000224FF48071424801F0B5FB00224FF4F7
:10071C0000713F4801F0AFFB7B68072B24D100220E
:10072C0008213B4801F0A7FB00221021384801F0BA
:10073C00A2FB00222021364801F09DFB0122402122
:10074C00334801F098FB01228021314801F093FBE2
:10075C0001224FF480712E4801F08DFB01224FF4E1
:10076C0000712B4801F087FB7B68082B24D10022F9
:10077C000821274801F07FFB00221021244801F0BA
:10078C007AFB00222021224801F075FB0022402137
:10079C001F4801F070FB002280211D4801F06BFB0B
:1007AC0000224FF480711A4801F065FB00224FF4CF
:1007BC000071174801F05FFB7B68092B24D10022E4
:1007CC000821134801F057FB00221021104801F0BA
:1007DC0052FB002220210E4801F04DFB002240214B
:1007EC000B4801F048FB01228021094801F043FB32
:1007FC0000224FF48071064801F03DFB00224FF4BB
:10080C000071034801F037FB00BF0837BD4680BDBF
:10081C00000C014080B582B000AF786039607B6815
:10082C00642B03D07B68652B17D032E000224FF489
:10083C0080411A4801F01FFB01224FF40041174878
:10084C0001F019FB3B68164A82FB03129210DB176E
:10085C00D31A1846FFF774FC1BE001224FF48041B9
:10086C000E4801F008FB00224FF400410B4801F048
:10087C0002FB3A680A4B83FB02139910D317C91A6F
:10088C000B469B000B445B00D11A0846FFF758FC43
:10089C0000BF00BF0837BD4680BD00BF000C014043
:1008AC006766666680B582B000AF786039607B6839
:1008BC00C82B03D07B68C92B17D032E000224FF431
:1008CC0080511A4801F0D7FA01224FF40051174811
:1008DC0001F0D1FA3B68164A82FB03129210DB1727
:1008EC00D31A1846FFF7FCFD1BE001224FF4805190
:1008FC000E4801F0C0FA00224FF400510B4801F0F1
:10090C00BAFA3A680A4B83FB02139910D317C91A27
:10091C000B469B000B445B00D11A0846FFF7E0FD29
:10092C0000BF00BF0837BD4680BD00BF000C0140B2
:10093C006766666680B500AF064B1B681946642077
:10094C00FFF768FF044B1B681946C820FFF7AAFF86
:10095C0000BF80BD840000207C00002080B500AF6B
:10096C00064B1B6819466520FFF754FF044B1B68A8
:10097C001946C920FFF796FF00BF80BD84000020F8
:10098C007C00002080B483B000AF7860094A7B689B
:10099C0052F82330012B06D1064A7B68002142F81D
:1009AC002310012300E0002318460C37BD4680BC01
:1009BC00704700BF7000002080B483B000AF786037
:1009CC00044A7B68012142F8231000BF0C37BD4656
:1009DC0080BC70477000002080B582B000AF00234F
:1009EC007B6084E0464A7B6852F8232045497B684B
:1009FC0041F82320444A7B6852F8232040497B6805
:100A0C0041F823207B68002B0AD101213F4801F0DB
:100A1C001BFA034619463C4A7B6842F823101AE03D
:100A2C007B68012B0AD10221384801F00DFA0346EC
:100A3C001946354A7B6842F823100CE07B68022B80
:100A4C0009D10421314801F0FFF9034619462E4A19
:100A5C007B6842F823102B4A7B6852F823202849E4
:100A6C007B6851F823309A423ED1254A7B6852F874
:100A7C00232025497B6851F823309A4234D1224AED
:100A8C007B6852F8232022497B6851F823309A4224
:100A9C0016D01D4A7B6852F823201D497B6841F80B
:100AAC002320194A7B6852F82330002B1CD1194A99
:100ABC007B68C82142F823107868FFF77DFF13E0AC
:100ACC00144A7B6852F823305A1E12497B6841F84D
:100ADC002320104A7B6852F82330002B04D10C4A97
:100AEC007B68012142F823107B6801337B607B68B3
:100AFC00022B7FF777AF00BF00BF0837BD4680BD24
:100B0C00180000200C00002000000020000C014008
:100B1C00240000206400002080B400AF0A4B0222A5
:100B2C001A600A4B03221A60094B05221A60084B03
:100B3C001B68084A1360054B1B68074A136000BF0B
:100B4C00BD4680BC704700BF800000208C00002098
:100B5C0088000020840000207C00002080B500AFBD
:100B6C0000F088FE00F018F800F09EF800F050F845
:100B7C00074801F0DDFD00F0A9FBFFF7CDFF3222A5
:100B8C000021044800F0BCFB00F070FCFCE700BF47
:100B9C00B00300209D0D000880B590B000AF07F1A8
:100BAC00180328220021184602F072F93B1D00227E
:100BBC001A605A609A60DA601A610223BB610123E1
:100BCC00BB621023FB6200237B6307F118031846FA
:100BDC0001F082F90346002B01D000F0D3F80F236B
:100BEC007B600023BB600023FB6000233B61002380
:100BFC007B613B1D0021184601F0EEFB0346002BE8
:100C0C0001D000F0BFF800BF4037BD4680BD0000EA
:100C1C0080B586B000AF07F1080300221A605A6055
:100C2C009A60DA603B4600221A605A601D4B4FF006
:100C3C0080421A601B4B41F63F725A60194B0022DE
:100C4C009A60184B0922DA60164B00221A61154B78
:100C5C0000229A61134801F01BFD0346002B01D0C2
:100C6C0000F090F84FF48053BB6007F1080319466D
:100C7C000C4801F099FE0346002B01D000F082F8DD
:100C8C0000233B6000237B603B461946054802F07D
:100C9C0071F80346002B01D000F074F800BF183730
:100CAC00BD4680BDB003002080B586B000AF07F113
:100CBC00080300221A605A609A60DA60284B9B691C
:100CCC00274A43F004039361254B9B6903F004030B
:100CDC007B607B68224B9B69214A43F0080393613C
:100CEC001F4B9B6903F008033B603B6800224FF6E7
:100CFC007E611C4801F0BFF800224FF2F8311A480F
:100D0C0001F0B9F84FF67E63BB600123FB60002352
:100D1C003B6102237B6107F108031946114800F07F
:100D2C0019FF0723BB600023FB6000233B6107F125
:100D3C00080319460C4800F00DFF4FF2F833BB6066
:100D4C000123FB6000233B6102237B6107F1080355
:100D5C001946054800F0FEFE00BF1837BD4680BDA1
:100D6C000010024000080140000C014080B582B028
:100D7C0000AF786000F01AFBFFF72EFE00BF0837BB
:100D8C00BD4680BD80B400AF72B600BFFEE7000068
:100D9C0080B500AF984B1B68042B00F2468201A271
:100DAC0052F823F0C50D0008D30D000857100008A9
:100DBC00F510000891110008904B02221A608E4B1E
:100DCC0001221A603AE28E4B1B68013B042B00F2A5
:100DDC00098101A252F823F08D0F00085F0E000864
:100DEC00C50E0008290F0008F90D0008834B1B687D
:100DFC00022B13D1FFF7B2FD00F092FC00F0FEFCC9
:100E0C00804B1B68013B7F4A13607F4B1B68013B87
:100E1C007D4A1360794B00221A6005E0FFF78AFDCA
:100E2C0000F07EFC00F0EAFC744B1B680133734A43
:100E3C001360754B1B68002B00F3D680704B02229D
:100E4C001A60724B1B68704A13606C4B02221A605A
:100E5C00CAE06A4B1B68022B11D1FFF77FFD00F033
:100E6C00B7FC684B1B68013B664A1360664B1B68FA
:100E7C00013B654A1360614B00221A6003E0FFF7E7
:100E8C0059FD00F0A5FC5D4B1B6801335B4A1360F8
:100E9C005D4B1B68002B00F3A980594B03221A6091
:100EAC005B4B1B68574A13605A4B1B68564A1360BE
:100EBC00524B02221A6099E0504B1B68022B13D143
:100ECC00FFF74CFD00F058FC00F06CFC4D4B1B6820
:100EDC00013B4C4A13604C4B1B68013B4A4A136064
:100EEC00464B00221A6005E0FFF724FD00F044FC9D
:100EFC0000F058FC414B1B680133404A1360414BD6
:100F0C001B68002B74DC3E4B04221A603F4B1B68A1
:100F1C003C4A1360394B02221A6069E0374B1B685C
:100F2C00022B11D1FFF71AFD00F010FC354B1B689A
:100F3C00013B344A1360344B1B68013B324A13604B
:100F4C002E4B00221A6003E0FFF7F4FC00F0FEFBCE
:100F5C002A4B1B680133294A13602A4B1B68002B50
:100F6C0048DC274B01221A602A4B1B68254A136068
:100F7C00274B1B68244A1360204B02221A6039E06D
:100F8C001E4B1B68022B13D1FFF7E8FC00F0C8FBCB
:100F9C0000F034FC1B4B1B68013B1A4A13601A4BC4
:100FAC001B68013B184A1360144B00221A6005E0C1
:100FBC00FFF7C0FC00F0B4FB00F020FC0F4B1B68EB
:100FCC0001330E4A1360104B1B68002B24DC0C4BB6
:100FDC0002221A600D4B1B680B4A1360074B02224E
:100FEC001A6019E000BF18E000BF16E000BF14E063
:100FFC0000BF12E000BF10E05C000020FC030020EA
:10100C0030000020840000207C00002080000020A4
:10101C008C0000208800002000BF0020FFF7B2FCED
:10102C000346012B40F00381854B1B68854A1360F6
:10103C00854B02221A60824B1B68844A1360844BD6
:10104C0002221A6000F048FBF1E000F0DFFA814B5D
:10105C001B68022B05D1FFF781FC7E4B00221A6026
:10106C0001E0FFF767FC7B4B1B680133794A136087
:10107C000020FFF787FC0346012B0FD1764B1B6832
:10108C00704A1360704B03221A60734B1B686F4AD3
:10109C0013606F4B03221A6000F01EFB0120FFF758
:1010AC0071FC0346012B0FD1664B1B68632B02DDD1
:1010BC00644B01221A60634B1B680133614A136055
:1010CC00604B1B68614A13600220FFF75BFC034610
:1010DC00012B40F0AE805B4B1B68594A1360584B98
:1010EC001B685A4A1360A4E000F0B2FA594B1B6813
:1010FC00022B05D1FFF732FC564B00221A6001E09F
:10110C00FFF718FC534B1B680133524A1360002045
:10111C00FFF738FC0346012B0FD1504B1B68494A93
:10112C001360494B04221A604C4B1B68474A1360EE
:10113C00474B04221A6000F0CFFA0120FFF722FC83
:10114C000346012B0FD13F4B1B68632B02DD3D4B3C
:10115C0001221A603B4B1B6801333A4A1360394B2E
:10116C001B683A4A13600220FFF70CFC0346012B64
:10117C0061D1344B1B68384A1360374B1B68334AB8
:10118C00136058E000F086FA324B1B68022B05D135
:10119C00FFF7E4FB2F4B00221A6001E0FFF7CAFBBC
:1011AC002C4B1B6801332B4A13600020FFF7EAFB22
:1011BC000346012B14D12A4B05221A60254B02221F
:1011CC001A60FFF7B7FB1E4B1B681F4A1360234BBB
:1011DC001B681E4A13601E4B01221A60FFF7AAFB04
:1011EC000120FFF7CFFB0346012B0FD1154B1B68DA
:1011FC00632B02DD134B01221A60124B1B68013367
:10120C00104A13600F4B1B68104A13600220FFF743
:10121C00B9FB0346012B10D10A4B1B680F4A136014
:10122C000E4B1B68094A136007E000BF06E000BFC5
:10123C0004E000BF02E000BF00E000BF00BF80BDC3
:10124C0088000020F8030020840000207C0000208F
:10125C005C000020FC030020800000208C0000209B
:10126C003000002080B485B000AF0346FB71FA79E2
:10127C00154913469B0013449B000B4400221A6033
:10128C00FA79114913469B0013449B000B44043319
:10129C0000221A60FA790C4913469B0013449B00F8
:1012AC000B44083300221A60FA79074913469B0055
:1012BC0013449B000B440C3300221A70FB7B184622
:1012CC001437BD4680BC70479000002080B582B0BA
:1012DC0000AF0023FB7106E0FB791846FFF7C2FF55
:1012EC00FB790133FB71054B1B78FA799A42F3D3E6
:1012FC0000BF00BF0837BD4680BD00BF60000020A6
:10130C0080B485B000AFF860B9607A60254B1B786B
:10131C00272B42D8234B1B781946234A0B469B009C
:10132C000B449B001344FA681A601E4B1B78194639
:10133C001D4A0B469B000B449B0013440433BA68B4
:10134C001A60184B1B781946174A0B469B000B4426
:10135C009B00134408337A681A60124B1B781946A9
:10136C00114A0B469B000B449B0013440C33002288
:10137C001A700C4B1A780B4B1B78194610460A4AFC
:10138C000B469B000B449B00134410331860054B19
:10139C001B780133DAB2034B1A7000BF1437BD4609
:1013AC0080BC7047600000209000002080B483B0A7
:1013BC0000AF00237B6048E02A497A6813469B0003
:1013CC0013449B000B4404331B68002B13D025499A
:1013DC007A6813469B0013449B000B4404331B6830
:1013EC00591E20487A6813469B0013449B00034403
:1013FC000433196026E01B497A6813469B0013449A
:10140C009B000B440833196816487A6813469B00F6
:10141C0013449B0003440433196012497A68134641
:10142C009B0013449B000B440C331B780133D8B244
:10143C000C497A6813469B0013449B000B440C33F5
:10144C0002461A707B6801337B60074B1B781A4687
:10145C007B689342B0DB00BF00BF0C37BD4680BC3D
:10146C00704700BF900000206000002080B582B063
:10147C0000AF00237B602BE01B497A6813469B006E
:10148C0013449B000B440C331B78002B1DD01649C6
:10149C007A6813469B0013449B000B440C331B7857
:1014AC00013BD8B210497A6813469B0013449B0049
:1014BC000B440C3302461A700B497A6813469B0096
:1014CC0013449B000B441B6898477B6801337B607B
:1014DC00064B1B781A467B689342CDDB00BF00BFDE
:1014EC000837BD4680BD00BF900000206000002082
:1014FC0080B485B000AF154B9B69144A43F00103CF
:10150C009361124B9B6903F00103BB60BB680F4BEB
:10151C00DB690E4A43F08053D3610C4BDB6903F05B
:10152C0080537B607B680A4B5B68FB60FB6823F035
:10153C00E063FB60FB6843F08063FB60044AFB687C
:10154C00536000BF1437BD4680BC7047001002408A
:10155C000000014080B584B000AF78607B681B68E8
:10156C00B3F1804F13D10C4BDB690B4A43F00103F1
:10157C00D361094BDB6903F00103FB60FB680022BC
:10158C0000211C2000F0AFFA1C2000F0C8FA00BFAC
:10159C001037BD4680BD00BF0010024080B400AFC4
:1015AC00FEE780B400AFFEE780B400AFFEE780B486
:1015BC0000AFFEE780B400AFFEE780B400AF00BF21
:1015CC00BD4680BC704780B400AF00BFBD4680BC38
:1015DC00704780B400AF00BFBD4680BC704780B57B
:1015EC0000AF00F08DF900BF80BD000080B500AFEA
:1015FC00024801F0E9F800BF80BD00BFB003002035
:10160C0080B400AF00BFBD4680BC704780B500AF52
:10161C0002210E4800F047FC012204210B4800F087
:10162C002AFC01220821094800F025FC102107485A
:10163C0000F039FC01222021044800F01CFC01229E
:10164C004021024800F017FC00BF80BD000801409B
:10165C0080B500AF04210E4800F025FC01220221C8
:10166C000B4800F008FC01220821094800F003FC9B
:10167C002021074800F017FC01221021044800F03B
:10168C00FAFB01224021024800F0F5FB00BF80BDAF
:10169C000008014080B500AF08210E4800F003FCA3
:1016AC00012204210B4800F0E6FB0122022109482B
:1016BC0000F0E1FB4021074800F0F5FB012220215E
:1016CC00044800F0D8FB01221021024800F0D3FBA3
:1016DC0000BF80BD0008014080B500AF012202218F
:1016EC000E4800F0C8FB012204210C4800F0C3FB9B
:1016FC0001220821094800F0BEFB012210210748F5
:10170C0000F0B9FB01222021044800F0B4FB0122B7
:10171C004021024800F0AFFB00BF80BD0008014033
:10172C0080B500AF00220221074800F0A4FB012283
:10173C000421054800F09FFB01220821024800F01B
:10174C009AFB00BF80BD00BF0008014080B500AF10
:10175C0001220221074800F08EFB002204210548DB
:10176C0000F089FB01220821024800F084FB00BF35
:10177C0080BD00BF0008014080B500AF01220221EE
:10178C00074800F078FB01220421054800F073FBA8
:10179C0000220821024800F06EFB00BF80BD00BF94
:1017AC000008014080B500AF00221021074800F06E
:1017BC0062FB01222021054800F05DFB0122402143
:1017CC00024800F058FB00BF80BD00BF000801407C
:1017DC0080B500AF01221021074800F04CFB00221D
:1017EC002021054800F047FB01224021024800F06F
:1017FC0042FB00BF80BD00BF0008014080B500AFB8
:10180C0001221021074800F036FB01222021054857
:10181C0000F031FB00224021024800F02CFB00BFFD
:10182C0080BD00BF00080140FFF7EAFE0B480C49E1
:10183C000C4A002302E0D458C4500433C4188C4220
:10184C00F9D3094A094C002301E013600432A24287
:10185C00FBD301F0F9FAFFF781F970470000002083
:10186C0040000020F02E000840000020040400205E
:10187C00FEE7000080B500AF084B1B68074A43F039
:10188C0010031360032000F023F90F2000F008F878
:10189C00FFF72EFE0023184680BD00BF002002403B
:1018AC0080B582B000AF7860124B1A68124B1B786F
:1018BC0019464FF47A73B3FBF1F3B2FBF3F318460A
:1018CC0000F03BF90346002B01D001230EE07B68AE
:1018DC000F2B0AD8002279684FF0FF3000F003F983
:1018EC00064A7B681360002300E001231846083782
:1018FC00BD4680BD340000203C0000203800002094
:10190C0080B400AF054B1B781A46054B1B6813447B
:10191C00034A136000BFBD4680BC70473C000020EA
:10192C000004002080B400AF024B1B681846BD4673
:10193C0080BC70470004002080B485B000AF786094
:10194C007B6803F00703FB600C4BDB68BB60BA6879
:10195C004FF6FF031340BB60FB681A02BB681343CE
:10196C0043F0BF6343F40033BB60044ABB68D360ED
:10197C0000BF1437BD4680BC704700BF00ED00E0CF
:10198C0080B400AF044BDB681B0A03F00703184656
:10199C00BD4680BC704700BF00ED00E080B483B052
:1019AC0000AF0346FB7197F90730002B0BDBFB797B
:1019BC0003F01F02064997F907305B09012000FA72
:1019CC0002F241F8232000BF0C37BD4680BC7047A3
:1019DC0000E100E080B483B000AF03463960FB71D6
:1019EC0097F90730002B0ADB3B68DAB20C4997F900
:1019FC0007301201D2B20B4483F800230AE03B6893
:101A0C00DAB20849FB7903F00F03043B1201D2B29E
:101A1C000B441A7600BF0C37BD4680BC704700BF24
:101A2C0000E100E000ED00E080B489B000AFF860A8
:101A3C00B9607A60FB6803F00703FB61FB69C3F1D3
:101A4C000703042B28BF0423BB61FB690433062B5B
:101A5C0002D9FB69033B00E000237B614FF0FF32AE
:101A6C00BB6902FA03F3DA43BB681A407B699A40FC
:101A7C004FF0FF317B6901FA03F3D9437B680B40CC
:101A8C00134318462437BD4680BC704780B582B0DE
:101A9C0000AF78607B68013BB3F1807F01D30123F9
:101AAC000FE00A4A7B68013B53600F214FF0FF3077
:101ABC00FFF790FF054B00229A60044B07221A6037
:101ACC00002318460837BD4680BD00BF10E000E07B
:101ADC0080B582B000AF78607868FFF72DFF00BF4B
:101AEC000837BD4680BD80B586B000AF0346B960EF
:101AFC007A60FB7300237B61FFF742FF78617A68A1
:101B0C00B9687869FFF790FF024697F90F301146D4
:101B1C001846FFF75FFF00BF1837BD4680BD80B584
:101B2C0082B000AF0346FB7197F907301846FFF7F8
:101B3C0035FF00BF0837BD4680BD80B582B000AF11
:101B4C0078607868FFF7A2FF034618460837BD4651
:101B5C0080BD000080B48BB000AF7860396000238A
:101B6C007B6200233B6248E101227B6A02FA03F3A9
:101B7C00FB613B681B68FA691340BB61BA69FB697E
:101B8C009A4240F037813B685B68A34A93425ED02F
:101B9C00A14A934275D8A14A934258D09F4A934286
:101BAC006FD89F4A934252D09D4A934269D89D4A1E
:101BBC0093424CD09B4A934263D89B4A934246D063
:101BCC00994A93425DD8122B2AD8122B59D801A2CC
:101BDC0052F823F05B1C0008351C0008471C000859
:101BEC00891C00088F1C00088F1C00088F1C000823
:101BFC008F1C00088F1C00088F1C00088F1C00080D
:101C0C008F1C00088F1C00088F1C00088F1C0008FC
:101C1C008F1C00088F1C00083D1C0008511C00087C
:101C2C00824A934213D02CE03B68DB683B6229E08C
:101C3C003B68DB6804333B6224E03B68DB680833B9
:101C4C003B621FE03B68DB680C333B621AE03B688D
:101C5C009B68002B02D104233B6213E03B689B681A
:101C6C00012B05D108233B627B68FA691A6109E0F4
:101C7C0008233B627B68FA695A6103E000233B62EC
:101C8C0000E000BFBB69FF2B01D87B6801E07B68DB
:101C9C0004337B61BB69FF2B02D87B6A9B0002E09B
:101CAC007B6A083B9B003B617B691A680F213B698F
:101CBC0001FA03F3DB431A40396A3B6901FA03F377
:101CCC001A437B691A603B685B6803F08053002BF6
:101CDC0000F09080564B9B69554A43F00103936189
:101CEC00534B9B6903F00103BB60BB68514A7B6A91
:101CFC009B08023352F82330FB607B6A03F003032A
:101D0C009B000F2202FA03F3DB43FA681340FB60DB
:101D1C007B68494A93420DD07B68484A934207D06E
:101D2C007B68474A934201D1022304E0032302E07B
:101D3C00012300E000237A6A02F003029200934030
:101D4C00FA681343FB603B497B6A9B080233FA68D1
:101D5C0041F823203B685B6803F48013002B06D00A
:101D6C00384B9A683749BB6913438B6006E0354B97
:101D7C009A68BB69DB43334913408B603B685B68F3
:101D8C0003F40013002B06D02E4BDA682D49BB69E7
:101D9C001343CB6006E02B4BDA68BB69DB43294964
:101DAC001340CB603B685B6803F40033002B06D018
:101DBC00244B5A682349BB6913434B6006E0214B03
:101DCC005A68BB69DB431F4913404B603B685B6837
:101DDC0003F48033002B06D01A4B1A681949BB69DF
:101DEC0013430B6006E0174B1A68BB69DB431549BC
:101DFC0013400B607B6A01337B623B681A687B6A19
:101E0C0022FA03F3002B7FF4AFAE00BF00BF2C37D8
:101E1C00BD4680BC704700BF00003210000031107E
:101E2C000000221000002110000012100000111000
:101E3C00001002400000014000080140000C01406D
:101E4C00001001400004014080B485B000AF786000
:101E5C000B467B807B689A687B881340002B02D0F2
:101E6C000123FB7301E00023FB73FB7B1846143743
:101E7C00BD4680BC704780B483B000AF78600B4621
:101E8C007B8013467B707B78002B03D07A887B6831
:101E9C001A6103E07B881A047B681A6100BF0C3757
:101EAC00BD4680BC704780B485B000AF78600B46EF
:101EBC007B807B68DB68FB607A88FB6813401A04C4
:101ECC00FB68D9437B880B401A437B681A6100BFBF
:101EDC001437BD4680BC704780B586B000AF7860C3
:101EEC007B68002B01D101236CE27B681B6803F03B
:101EFC000103002B00F08780924B5B6803F00C030E
:101F0C00042B0CD08F4B5B6803F00C03082B12D105
:101F1C008C4B5B6803F48033B3F5803F0BD1894B5A
:101F2C001B6803F40033002B6CD07B685B68002BC0
:101F3C0068D1012346E27B685B68B3F5803F06D12C
:101F4C00804B1B687F4A43F4803313602EE07B6820
:101F5C005B68002B0CD17B4B1B687A4A23F48033D3
:101F6C001360784B1B68774A23F4802313601DE0C1
:101F7C007B685B68B3F5A02F0CD1724B1B68714A60
:101F8C0043F4802313606F4B1B686E4A43F4803319
:101F9C0013600BE06B4B1B686A4A23F480331360AD
:101FAC00684B1B68674A23F4802313607B685B686B
:101FBC00002B13D0FFF7B6FC386108E0FFF7B2FC3A
:101FCC0002463B69D31A642B01D90323FAE15D4B1A
:101FDC001B6803F40033002BF0D014E0FFF7A2FCD5
:101FEC00386108E0FFF79EFC02463B69D31A642B6C
:101FFC0001D90323E6E1534B1B6803F40033002B98
:10200C00F0D100E000BF7B681B6803F00203002BDB
:10201C0063D04C4B5B6803F00C03002B0BD0494B8B
:10202C005B6803F00C03082B1CD1464B5B6803F474
:10203C008033002B16D1434B1B6803F00203002B9B
:10204C0005D07B681B69012B01D00123BAE13D4B04
:10205C001B6823F0F8027B685B69DB00394913438A
:10206C000B603AE07B681B69002B20D0364B0122B9
:10207C001A60FFF757FC386108E0FFF753FC024683
:10208C003B69D31A022B01D903239BE12D4B1B680F
:10209C0003F00203002BF0D02A4B1B6823F0F8024C
:1020AC007B685B69DB00274913430B6015E0264B0B
:1020BC0000221A60FFF736FC386108E0FFF732FCAB
:1020CC0002463B69D31A022B01D903237AE11D4B3B
:1020DC001B6803F00203002BF0D17B681B6803F034
:1020EC000803002B3AD07B689B69002B19D0174B47
:1020FC0001221A60FFF716FC386108E0FFF712FCAA
:10210C0002463B69D31A022B01D903235AE10D4B2A
:10211C005B6A03F00203002BF0D0012000F09AFA66
:10212C001CE00A4B00221A60FFF7FCFB38610FE041
:10213C00FFF7F8FB02463B69D31A022B08D903239D
:10214C0040E100BF001002400000424280044242C5
:10215C009E4B5B6A03F00203002BE9D17B681B6882
:10216C0003F00403002B00F0A6800023FB75974BB3
:10217C00DB6903F08053002B0DD1944BDB69934A40
:10218C0043F08053D361914BDB6903F08053BB6008
:10219C00BB680123FB758E4B1B6803F48073002B0B
:1021AC0018D18B4B1B688A4A43F480731360FFF77A
:1021BC00B9FB386108E0FFF7B5FB02463B69D31A5F
:1021CC00642B01D90323FDE0814B1B6803F480735E
:1021DC00002BF0D07B68DB68012B06D17B4B1B6A94
:1021EC007A4A43F0010313622DE07B68DB68002B15
:1021FC000CD1764B1B6A754A23F001031362734BA7
:10220C001B6A724A23F0040313621CE07B68DB68D0
:10221C00052B0CD16D4B1B6A6C4A43F00403136203
:10222C006A4B1B6A694A43F0010313620BE0674B6C
:10223C001B6A664A23F001031362644B1B6A634AF0
:10224C0023F0040313627B68DB68002B15D0FFF7C7
:10225C0069FB38610AE0FFF765FB02463B69D31A5C
:10226C0041F28832934201D90323ABE0574B1B6AEE
:10227C0003F00203002BEED014E0FFF753FB3861A0
:10228C000AE0FFF74FFB02463B69D31A41F2883252
:10229C00934201D9032395E04C4B1B6A03F00203D4
:1022AC00002BEED1FB7D012B05D1484BDB69474A56
:1022BC0023F08053D3617B68DB69002B00F08180B5
:1022CC00424B5B6803F00C03082B61D07B68DB6925
:1022DC00022B46D13F4B00221A60FFF723FB3861DB
:1022EC0008E0FFF71FFB02463B69D31A022B01D90A
:1022FC00032367E0354B1B6803F00073002BF0D110
:10230C007B681B6AB3F5803F08D1304B5B6823F4C4
:10231C0000327B689B682D4913434B602B4B5B68E9
:10232C0023F474127B68196A7B685B6A0B43274938
:10233C0013434B60274B01221A60FFF7F3FA386105
:10234C0008E0FFF7EFFA02463B69D31A022B01D9DA
:10235C00032337E01D4B1B6803F00073002BF0D0F8
:10236C002FE01C4B00221A60FFF7DCFA386108E002
:10237C00FFF7D8FA02463B69D31A022B01D9032383
:10238C0020E0124B1B6803F00073002BF0D118E017
:10239C007B68DB69012B01D1012313E00B4B5B68DC
:1023AC00FB60FB6803F480327B681B6A9A4206D19F
:1023BC00FB6803F470127B685B6A9A4201D00123BC
:1023CC0000E0002318461837BD4680BD00100240BF
:1023DC00007000406000424280B584B000AF78606D
:1023EC0039607B68002B01D10123D0E06A4B1B685C
:1023FC0003F007033A689A4210D9674B1B6823F025
:10240C00070265493B6813430B60634B1B6803F081
:10241C0007033A689A4201D00123B8E07B681B6835
:10242C0003F00203002B20D07B681B6803F004032D
:10243C00002B05D0594B5B68584A43F4E06353605A
:10244C007B681B6803F00803002B05D0534B5B68BB
:10245C00524A43F460535360504B5B6823F0F002D4
:10246C007B689B684D4913434B607B681B6803F08A
:10247C000103002B40D07B685B68012B07D1474BD5
:10248C001B6803F40033002B15D101237FE07B681C
:10249C005B68022B07D1414B1B6803F00073002BC8
:1024AC0009D1012373E03D4B1B6803F00203002BA1
:1024BC0001D101236BE0394B5B6823F003027B688D
:1024CC005B68364913434B60FFF72CFAF8600AE05F
:1024DC00FFF728FA0246FB68D31A41F2883293427E
:1024EC0001D9032353E02D4B5B6803F00C027B688E
:1024FC005B689B009A42EBD1274B1B6803F00703E8
:10250C003A689A4210D2244B1B6823F007022249E6
:10251C003B6813430B60204B1B6803F007033A68BE
:10252C009A4201D0012332E07B681B6803F004035C
:10253C00002B08D0194B5B6823F4E0627B68DB68E6
:10254C00164913434B607B681B6803F00803002B90
:10255C0009D0124B5B6823F460527B681B69DB006B
:10256C000E4913434B6000F021F802460B4B5B689D
:10257C001B0903F00F030A49CB5C22FA03F3094A47
:10258C001360094B1B681846FFF78AF9002318469D
:10259C001037BD4680BD00BF002002400010024035
:1025AC00C42E0008340000203800002080B487B00E
:1025BC0000AF0023FB600023BB6000237B61002382
:1025CC007B6000233B611E4B5B68FB60FB6803F088
:1025DC000C03042B02D0082B03D027E0194B3B61D2
:1025EC0027E0FB689B0C03F00F03174AD35C7B605E
:1025FC00FB6803F48033002B10D0114B5B685B0C31
:10260C0003F00103114AD35CBB607B680D4A02FBEB
:10261C0003F2BB68B2FBF3F37B6104E07B680C4A0A
:10262C0002FB03F37B617B693B6102E0054B3B6181
:10263C0000BF3B6918461C37BD4680BC704700BFC5
:10264C000010024000127A00D42E0008E42E00087C
:10265C0000093D0080B485B000AF78600A4B1B6860
:10266C000A4AA2FB03235B0A7A6802FB03F3FB60B2
:10267C0000BFFB685A1EFA60002BF9D100BF00BFE7
:10268C001437BD4680BC704734000020D34D621017
:10269C0080B582B000AF78607B68002B01D101233C
:1026AC0041E07B6893F83D30DBB2002B06D17B68B0
:1026BC00002283F83C207868FEF74CFF7B680222EE
:1026CC0083F83D207B681A687B68043319461046F2
:1026DC0000F056FA7B68012283F846207B680122C1
:1026EC0083F83E207B68012283F83F207B6801221F
:1026FC0083F840207B68012283F841207B6801220B
:10270C0083F842207B68012283F843207B680122F6
:10271C0083F844207B68012283F845207B680122E2
:10272C0083F83D20002318460837BD4680BD0000C5
:10273C0080B485B000AF78607B6893F83D30DBB235
:10274C00012B01D0012335E07B68022283F83D2068
:10275C007B681B68DA687B681B6842F00102DA60F0
:10276C007B681B68164A934209D07B681B68B3F1DF
:10277C00804F04D07B681B68124A934211D17B684E
:10278C001B689B6803F00703FB60FB68062B10D0EB
:10279C007B681B681A687B681B6842F001021A6030
:1027AC0007E07B681B681A687B681B6842F00102B3
:1027BC001A60002318461437BD4680BC704700BF12
:1027CC00002C01400004004080B584B000AF78605C
:1027DC007B681B68DB68FB607B681B681B69BB60E4
:1027EC00BB6803F00203002B20D0FB6803F002034C
:1027FC00002B1BD07B681B686FF002021A617B6890
:10280C0001221A777B681B689B6903F00303002B7A
:10281C0003D0786800F098F905E0786800F08BF93F
:10282C00786800F09AF97B6800221A77BB6803F08D
:10283C000403002B20D0FB6803F00403002B1BD0F7
:10284C007B681B686FF004021A617B6802221A779E
:10285C007B681B689B6903F44073002B03D078687A
:10286C0000F072F905E0786800F065F9786800F01E
:10287C0074F97B6800221A77BB6803F00803002BFD
:10288C0020D0FB6803F00803002B1BD07B681B686F
:10289C006FF008021A617B6804221A777B681B6848
:1028AC00DB6903F00303002B03D0786800F04CF9CC
:1028BC0005E0786800F03FF9786800F04EF97B6825
:1028CC0000221A77BB6803F01003002B20D0FB68A2
:1028DC0003F01003002B1BD07B681B686FF01002F9
:1028EC001A617B6808221A777B681B68DB6903F422
:1028FC004073002B03D0786800F026F905E0786867
:10290C0000F019F9786800F028F97B6800221A7732
:10291C00BB6803F00103002B0CD0FB6803F0010330
:10292C00002B07D07B681B686FF001021A61786876
:10293C00FEF71CFABB6803F08003002B0CD0FB687D
:10294C0003F08003002B07D07B681B686FF08002BC
:10295C001A61786800F06FFABB6803F04003002B33
:10296C000CD0FB6803F04003002B07D07B681B687E
:10297C006FF040021A61786800F0F8F8BB6803F059
:10298C002003002B0CD0FB6803F02003002B07D096
:10299C007B681B686FF020021A61786800F042FABD
:1029AC0000BF1037BD4680BD80B584B000AF7860E5
:1029BC0039600023FB737B6893F83C30012B01D109
:1029CC000223B4E07B68012283F83C207B6802225E
:1029DC0083F83D207B681B689B68BB60BB6823F059
:1029EC007703BB60BB6823F47F43BB607B681B68C9
:1029FC00BA689A603B681B68B3F5005F3ED0B3F5CC
:102A0C00005F00F28780B3F5805F00F08680B3F53D
:102A1C00805F7FD8702B1AD0702B7BD8602B50D056
:102A2C00602B77D8502B3CD0502B73D8402B58D0E0
:102A3C00402B6FD8302B64D0302B6BD8202B60D030
:102A4C00202B67D8002B5CD0102B5AD062E07B680F
:102A5C0018683B6899683B685A683B68DB6800F00B
:102A6C006AF97B681B689B68BB60BB6843F07703A3
:102A7C00BB607B681B68BA689A604FE07B6818681B
:102A8C003B6899683B685A683B68DB6800F053F90F
:102A9C007B681B689A687B681B6842F480429A606A
:102AAC003CE07B6818683B6859683B68DB681A46F1
:102ABC0000F0CAF87B681B685021184600F021F919
:102ACC002CE07B6818683B6859683B68DB681A46E1
:102ADC0000F0E8F87B681B686021184600F011F9DB
:102AEC001CE07B6818683B6859683B68DB681A46D1
:102AFC0000F0AAF87B681B684021184600F001F929
:102B0C000CE07B681A683B681B681946104600F09D
:102B1C00F8F803E00123FB7300E000BF7B6801229F
:102B2C0083F83D207B68002283F83C20FB7B184611
:102B3C001037BD4680BD80B483B000AF786000BF55
:102B4C000C37BD4680BC704780B483B000AF786052
:102B5C0000BF0C37BD4680BC704780B483B000AF5B
:102B6C00786000BF0C37BD4680BC704780B483B022
:102B7C0000AF786000BF0C37BD4680BC70470000CA
:102B8C0080B485B000AF786039607B681B68FB60EF
:102B9C007B682B4A934207D07B68B3F1804F03D0FC
:102BAC007B68284A934208D1FB6823F07003FB60D2
:102BBC003B685B68FA681343FB607B68204A93426E
:102BCC0007D07B68B3F1804F03D07B681D4A9342DA
:102BDC0008D1FB6823F44073FB603B68DB68FA6840
:102BEC001343FB60FB6823F080023B685B69134373
:102BFC00FB607B68FA681A603B689A687B68DA62EB
:102C0C003B681A687B689A627B680D4A934203D1D1
:102C1C003B681A697B681A637B6801225A617B687E
:102C2C001B6903F00103002B05D07B681B6923F0A3
:102C3C0001027B681A6100BF1437BD4680BC704727
:102C4C00002C01400004004080B487B000AFF86055
:102C5C00B9607A60FB681B6A7B61FB681B6A23F0B6
:102C6C000102FB681A62FB689B693B613B6923F0BC
:102C7C00F0033B617B681B013A6913433B617B6941
:102C8C0023F00A037B617A69BB6813437B61FB68A1
:102C9C003A699A61FB687A691A6200BF1C37BD46B3
:102CAC0080BC704780B487B000AFF860B9607A60C0
:102CBC00FB681B6A7B61FB681B6A23F01002FB68D4
:102CCC001A62FB689B693B613B6923F470433B616F
:102CDC007B681B033A6913433B617B6923F0A003B8
:102CEC007B61BB681B017A6913437B61FB683A69A2
:102CFC009A61FB687A691A6200BF1C37BD4680BCBA
:102D0C00704780B485B000AF786039607B689B6891
:102D1C00FB60FB6823F07003FB603A68FB681343AD
:102D2C0043F00703FB607B68FA689A6000BF1437B6
:102D3C00BD4680BC704780B487B000AFF860B96006
:102D4C007A603B60FB689B687B617B6923F47F4303
:102D5C007B613B681A027B681A43BB6813437A6930
:102D6C0013437B61FB687A699A6000BF1C37BD46D0
:102D7C0080BC704780B485B000AF786039607B68E8
:102D8C0093F83C30012B01D1022341E07B680122F6
:102D9C0083F83C207B68022283F83D207B681B680B
:102DAC005B68FB607B681B689B68BB60FB6823F0FF
:102DBC007003FB603B681B68FA681343FB607B681D
:102DCC001B68FA685A607B681B68144A934209D0E6
:102DDC007B681B68B3F1804F04D07B681B68104A7A
:102DEC0093420CD1BB6823F08003BB603B685B68EB
:102DFC00BA681343BB607B681B68BA689A607B68CF
:102E0C00012283F83D207B68002283F83C200023BC
:102E1C0018461437BD4680BC704700BF002C0140DB
:102E2C000004004080B483B000AF786000BF0C3762
:102E3C00BD4680BC704780B483B000AF786000BFE3
:102E4C000C37BD4680BC704770B500260C4D0D4C40
:102E5C00641BA410A64209D100F022F800260A4DEA
:102E6C000A4C641BA410A64205D170BD55F8043B56
:102E7C0098470136EEE755F8043B98470136F2E7E0
:102E8C00E82E0008E82E0008E82E0008EC2E0008BA
:102E9C0003460244934200D1704703F8011BF9E743
:102EAC00F8B500BFF8BC08BC9E467047F8B500BF2B
:082EBC00F8BC08BC9E467047FB
:102EC40000000000000000000102030406070809D6
:102ED40002030405060708090A0B0C0D0E0F101057
:042EE40001020000E7
:042EE80031010008AC
:042EEC000D010008CC
:102EF00001000000000000000000000001000000D0
:102F000000000000000000000100000000000000C0
:102F100000000000010000000000000000000000B0
:102F20000500000000127A001000000001000000FF
:0400000508001835A2
:00000001FF
